{
  "_format": "hh-sol-artifact-1",
  "contractName": "HumanContentLedger",
  "sourceName": "contracts/HumanContentLedger.sol",
  "abi": [
    {
      "inputs": [],
      "stateMutability": "nonpayable",
      "type": "constructor"
    },
    {
      "inputs": [],
      "name": "ECDSAInvalidSignature",
      "type": "error"
    },
    {
      "inputs": [
        {
          "internalType": "uint256",
          "name": "length",
          "type": "uint256"
        }
      ],
      "name": "ECDSAInvalidSignatureLength",
      "type": "error"
    },
    {
      "inputs": [
        {
          "internalType": "bytes32",
          "name": "s",
          "type": "bytes32"
        }
      ],
      "name": "ECDSAInvalidSignatureS",
      "type": "error"
    },
    {
      "inputs": [],
      "name": "InvalidShortString",
      "type": "error"
    },
    {
      "inputs": [
        {
          "internalType": "string",
          "name": "str",
          "type": "string"
        }
      ],
      "name": "StringTooLong",
      "type": "error"
    },
    {
      "anonymous": false,
      "inputs": [
        {
          "indexed": true,
          "internalType": "uint256",
          "name": "entryId",
          "type": "uint256"
        },
        {
          "indexed": true,
          "internalType": "address",
          "name": "author",
          "type": "address"
        },
        {
          "indexed": false,
          "internalType": "string",
          "name": "contentHash",
          "type": "string"
        },
        {
          "indexed": false,
          "internalType": "string",
          "name": "humanSignatureHash",
          "type": "string"
        },
        {
          "indexed": false,
          "internalType": "bool",
          "name": "isVerified",
          "type": "bool"
        }
      ],
      "name": "ContentStored",
      "type": "event"
    },
    {
      "anonymous": false,
      "inputs": [],
      "name": "EIP712DomainChanged",
      "type": "event"
    },
    {
      "anonymous": false,
      "inputs": [
        {
          "indexed": true,
          "internalType": "uint256",
          "name": "entryId",
          "type": "uint256"
        },
        {
          "indexed": false,
          "internalType": "string",
          "name": "worldIdNullifier",
          "type": "string"
        }
      ],
      "name": "WorldIdVerified",
      "type": "event"
    },
    {
      "inputs": [
        {
          "internalType": "address",
          "name": "",
          "type": "address"
        },
        {
          "internalType": "uint256",
          "name": "",
          "type": "uint256"
        }
      ],
      "name": "authorToEntries",
      "outputs": [
        {
          "internalType": "uint256",
          "name": "",
          "type": "uint256"
        }
      ],
      "stateMutability": "view",
      "type": "function"
    },
    {
      "inputs": [
        {
          "internalType": "uint256",
          "name": "",
          "type": "uint256"
        }
      ],
      "name": "contentEntries",
      "outputs": [
        {
          "internalType": "string",
          "name": "contentHash",
          "type": "string"
        },
        {
          "internalType": "string",
          "name": "humanSignatureHash",
          "type": "string"
        },
        {
          "internalType": "string",
          "name": "worldIdNullifier",
          "type": "string"
        },
        {
          "internalType": "address",
          "name": "author",
          "type": "address"
        },
        {
          "internalType": "uint256",
          "name": "timestamp",
          "type": "uint256"
        },
        {
          "internalType": "uint256",
          "name": "keystrokeCount",
          "type": "uint256"
        },
        {
          "internalType": "uint256",
          "name": "typingSpeed",
          "type": "uint256"
        },
        {
          "internalType": "bool",
          "name": "isVerified",
          "type": "bool"
        }
      ],
      "stateMutability": "view",
      "type": "function"
    },
    {
      "inputs": [
        {
          "internalType": "string",
          "name": "_contentHash",
          "type": "string"
        }
      ],
      "name": "contentExists",
      "outputs": [
        {
          "internalType": "bool",
          "name": "",
          "type": "bool"
        }
      ],
      "stateMutability": "view",
      "type": "function"
    },
    {
      "inputs": [
        {
          "internalType": "string",
          "name": "",
          "type": "string"
        }
      ],
      "name": "contentHashToId",
      "outputs": [
        {
          "internalType": "uint256",
          "name": "",
          "type": "uint256"
        }
      ],
      "stateMutability": "view",
      "type": "function"
    },
    {
      "inputs": [],
      "name": "eip712Domain",
      "outputs": [
        {
          "internalType": "bytes1",
          "name": "fields",
          "type": "bytes1"
        },
        {
          "internalType": "string",
          "name": "name",
          "type": "string"
        },
        {
          "internalType": "string",
          "name": "version",
          "type": "string"
        },
        {
          "internalType": "uint256",
          "name": "chainId",
          "type": "uint256"
        },
        {
          "internalType": "address",
          "name": "verifyingContract",
          "type": "address"
        },
        {
          "internalType": "bytes32",
          "name": "salt",
          "type": "bytes32"
        },
        {
          "internalType": "uint256[]",
          "name": "extensions",
          "type": "uint256[]"
        }
      ],
      "stateMutability": "view",
      "type": "function"
    },
    {
      "inputs": [
        {
          "internalType": "uint256",
          "name": "_entryId",
          "type": "uint256"
        }
      ],
      "name": "getContentEntry",
      "outputs": [
        {
          "components": [
            {
              "internalType": "string",
              "name": "contentHash",
              "type": "string"
            },
            {
              "internalType": "string",
              "name": "humanSignatureHash",
              "type": "string"
            },
            {
              "internalType": "string",
              "name": "worldIdNullifier",
              "type": "string"
            },
            {
              "internalType": "address",
              "name": "author",
              "type": "address"
            },
            {
              "internalType": "uint256",
              "name": "timestamp",
              "type": "uint256"
            },
            {
              "internalType": "uint256",
              "name": "keystrokeCount",
              "type": "uint256"
            },
            {
              "internalType": "uint256",
              "name": "typingSpeed",
              "type": "uint256"
            },
            {
              "internalType": "bool",
              "name": "isVerified",
              "type": "bool"
            }
          ],
          "internalType": "struct HumanContentLedger.ContentEntry",
          "name": "",
          "type": "tuple"
        }
      ],
      "stateMutability": "view",
      "type": "function"
    },
    {
      "inputs": [
        {
          "internalType": "address",
          "name": "_author",
          "type": "address"
        }
      ],
      "name": "getEntriesByAuthor",
      "outputs": [
        {
          "internalType": "uint256[]",
          "name": "",
          "type": "uint256[]"
        }
      ],
      "stateMutability": "view",
      "type": "function"
    },
    {
      "inputs": [
        {
          "internalType": "string",
          "name": "_contentHash",
          "type": "string"
        }
      ],
      "name": "getEntryIdByContentHash",
      "outputs": [
        {
          "internalType": "uint256",
          "name": "",
          "type": "uint256"
        }
      ],
      "stateMutability": "view",
      "type": "function"
    },
    {
      "inputs": [
        {
          "internalType": "string",
          "name": "_humanSignatureHash",
          "type": "string"
        }
      ],
      "name": "getEntryIdBySignatureHash",
      "outputs": [
        {
          "internalType": "uint256",
          "name": "",
          "type": "uint256"
        }
      ],
      "stateMutability": "view",
      "type": "function"
    },
    {
      "inputs": [],
      "name": "getTotalEntries",
      "outputs": [
        {
          "internalType": "uint256",
          "name": "",
          "type": "uint256"
        }
      ],
      "stateMutability": "view",
      "type": "function"
    },
    {
      "inputs": [
        {
          "internalType": "address",
          "name": "",
          "type": "address"
        }
      ],
      "name": "nonces",
      "outputs": [
        {
          "internalType": "uint256",
          "name": "",
          "type": "uint256"
        }
      ],
      "stateMutability": "view",
      "type": "function"
    },
    {
      "inputs": [
        {
          "internalType": "string",
          "name": "",
          "type": "string"
        }
      ],
      "name": "nullifierToId",
      "outputs": [
        {
          "internalType": "uint256",
          "name": "",
          "type": "uint256"
        }
      ],
      "stateMutability": "view",
      "type": "function"
    },
    {
      "inputs": [],
      "name": "owner",
      "outputs": [
        {
          "internalType": "address",
          "name": "",
          "type": "address"
        }
      ],
      "stateMutability": "view",
      "type": "function"
    },
    {
      "inputs": [],
      "name": "pause",
      "outputs": [],
      "stateMutability": "nonpayable",
      "type": "function"
    },
    {
      "inputs": [
        {
          "internalType": "string",
          "name": "_humanSignatureHash",
          "type": "string"
        }
      ],
      "name": "signatureExists",
      "outputs": [
        {
          "internalType": "bool",
          "name": "",
          "type": "bool"
        }
      ],
      "stateMutability": "view",
      "type": "function"
    },
    {
      "inputs": [
        {
          "internalType": "string",
          "name": "",
          "type": "string"
        }
      ],
      "name": "signatureHashToId",
      "outputs": [
        {
          "internalType": "uint256",
          "name": "",
          "type": "uint256"
        }
      ],
      "stateMutability": "view",
      "type": "function"
    },
    {
      "inputs": [
        {
          "internalType": "string",
          "name": "_contentHash",
          "type": "string"
        },
        {
          "internalType": "string",
          "name": "_humanSignatureHash",
          "type": "string"
        },
        {
          "internalType": "uint256",
          "name": "_keystrokeCount",
          "type": "uint256"
        },
        {
          "internalType": "uint256",
          "name": "_typingSpeed",
          "type": "uint256"
        }
      ],
      "name": "storeContent",
      "outputs": [],
      "stateMutability": "nonpayable",
      "type": "function"
    },
    {
      "inputs": [
        {
          "internalType": "string",
          "name": "_contentHash",
          "type": "string"
        },
        {
          "internalType": "string",
          "name": "_humanSignatureHash",
          "type": "string"
        },
        {
          "internalType": "uint256",
          "name": "_keystrokeCount",
          "type": "uint256"
        },
        {
          "internalType": "uint256",
          "name": "_typingSpeed",
          "type": "uint256"
        },
        {
          "internalType": "address",
          "name": "_author",
          "type": "address"
        },
        {
          "internalType": "uint8",
          "name": "v",
          "type": "uint8"
        },
        {
          "internalType": "bytes32",
          "name": "r",
          "type": "bytes32"
        },
        {
          "internalType": "bytes32",
          "name": "s",
          "type": "bytes32"
        }
      ],
      "name": "storeContentGasless",
      "outputs": [],
      "stateMutability": "nonpayable",
      "type": "function"
    },
    {
      "inputs": [
        {
          "internalType": "string",
          "name": "_contentHash",
          "type": "string"
        },
        {
          "internalType": "string",
          "name": "_humanSignatureHash",
          "type": "string"
        },
        {
          "internalType": "string",
          "name": "_worldIdNullifier",
          "type": "string"
        },
        {
          "internalType": "uint256",
          "name": "_keystrokeCount",
          "type": "uint256"
        },
        {
          "internalType": "uint256",
          "name": "_typingSpeed",
          "type": "uint256"
        }
      ],
      "name": "storeVerifiedContent",
      "outputs": [],
      "stateMutability": "nonpayable",
      "type": "function"
    }
  ],
  "bytecode": "0x6101606040526001600755348015610015575f5ffd5b506040518060400160405280601281526020017f48756d616e436f6e74656e744c656467657200000000000000000000000000008152506040518060400160405280600181526020017f31000000000000000000000000000000000000000000000000000000000000008152506100955f8361017060201b90919060201c565b61012081815250506100b160018261017060201b90919060201c565b6101408181525050818051906020012060e08181525050808051906020012061010081815250504660a081815250506100ee6101bd60201b60201c565b608081815250503073ffffffffffffffffffffffffffffffffffffffff1660c08173ffffffffffffffffffffffffffffffffffffffff168152505050503360085f6101000a81548173ffffffffffffffffffffffffffffffffffffffff021916908373ffffffffffffffffffffffffffffffffffffffff160217905550610761565b5f6020835110156101915761018a8361021760201b60201c565b90506101b7565b826101a18361027c60201b60201c565b5f0190816101af91906104c2565b5060ff5f1b90505b92915050565b5f7f8b73c3c69bb8fe3d512ecc4cf759cc79239f7b179b0ffacaa9a75d522b39400f60e0516101005146306040516020016101fc9594939291906105f7565b60405160208183030381529060405280519060200120905090565b5f5f829050601f8151111561026357826040517f305a27a900000000000000000000000000000000000000000000000000000000815260040161025a91906106ae565b60405180910390fd5b80518161026f906106fb565b5f1c175f1b915050919050565b5f819050919050565b5f81519050919050565b7f4e487b71000000000000000000000000000000000000000000000000000000005f52604160045260245ffd5b7f4e487b71000000000000000000000000000000000000000000000000000000005f52602260045260245ffd5b5f600282049050600182168061030057607f821691505b602082108103610313576103126102bc565b5b50919050565b5f819050815f5260205f209050919050565b5f6020601f8301049050919050565b5f82821b905092915050565b5f600883026103757fffffffffffffffffffffffffffffffffffffffffffffffffffffffffffffffff8261033a565b61037f868361033a565b95508019841693508086168417925050509392505050565b5f819050919050565b5f819050919050565b5f6103c36103be6103b984610397565b6103a0565b610397565b9050919050565b5f819050919050565b6103dc836103a9565b6103f06103e8826103ca565b848454610346565b825550505050565b5f5f905090565b6104076103f8565b6104128184846103d3565b505050565b5b818110156104355761042a5f826103ff565b600181019050610418565b5050565b601f82111561047a5761044b81610319565b6104548461032b565b81016020851015610463578190505b61047761046f8561032b565b830182610417565b50505b505050565b5f82821c905092915050565b5f61049a5f198460080261047f565b1980831691505092915050565b5f6104b2838361048b565b9150826002028217905092915050565b6104cb82610285565b67ffffffffffffffff8111156104e4576104e361028f565b5b6104ee82546102e9565b6104f9828285610439565b5f60209050601f83116001811461052a575f8415610518578287015190505b61052285826104a7565b865550610589565b601f19841661053886610319565b5f5b8281101561055f5784890151825560018201915060208501945060208101905061053a565b8683101561057c5784890151610578601f89168261048b565b8355505b6001600288020188555050505b505050505050565b5f819050919050565b6105a381610591565b82525050565b6105b281610397565b82525050565b5f73ffffffffffffffffffffffffffffffffffffffff82169050919050565b5f6105e1826105b8565b9050919050565b6105f1816105d7565b82525050565b5f60a08201905061060a5f83018861059a565b610617602083018761059a565b610624604083018661059a565b61063160608301856105a9565b61063e60808301846105e8565b9695505050505050565b5f82825260208201905092915050565b8281835e5f83830152505050565b5f601f19601f8301169050919050565b5f61068082610285565b61068a8185610648565b935061069a818560208601610658565b6106a381610666565b840191505092915050565b5f6020820190508181035f8301526106c68184610676565b905092915050565b5f81519050919050565b5f819050602082019050919050565b5f6106f28251610591565b80915050919050565b5f610705826106ce565b8261070f846106d8565b905061071a816106e7565b9250602082101561075a576107557fffffffffffffffffffffffffffffffffffffffffffffffffffffffffffffffff8360200360080261033a565b831692505b5050919050565b60805160a05160c05160e0516101005161012051610140516131006107b25f395f6117b201525f61177701525f611c1501525f611bf401525f6117e701525f61183d01525f61186601526131005ff3fe608060405234801561000f575f5ffd5b506004361061011f575f3560e01c80636a36b43a116100ab578063869d2a631161006f578063869d2a631461035e5780638da5cb5b1461038e578063aa6febfb146103ac578063c214f48b146103dc578063f655e51b1461040c5761011f565b80636a36b43a146102a05780637a211063146102d05780637ecebe00146103005780638456cb591461033057806384b0196e1461033a5761011f565b8063131a83a6116100f2578063131a83a6146101bd57806336b637fd146101ed57806354ac2b811461020957806357dfe3fc1461023957806358bc35e6146102705761011f565b80630b751aa3146101235780630f5db9fe146101535780631174622c1461018357806312d491c91461019f575b5f5ffd5b61013d60048036038101906101389190611eca565b610428565b60405161014a9190611f29565b60405180910390f35b61016d60048036038101906101689190611eca565b610455565b60405161017a9190611f5c565b60405180910390f35b61019d60048036038101906101989190611f9f565b61047f565b005b6101a761090d565b6040516101b49190611f29565b60405180910390f35b6101d760048036038101906101d29190611eca565b610922565b6040516101e49190611f29565b60405180910390f35b6102076004803603810190610202919061212d565b610949565b005b610223600480360381019061021e9190612216565b610be8565b6040516102309190612389565b60405180910390f35b610253600480360381019061024e9190612216565b610e9f565b604051610267989796959493929190612400565b60405180910390f35b61028a60048036038101906102859190612491565b6110a0565b6040516102979190612564565b60405180910390f35b6102ba60048036038101906102b59190611eca565b611133565b6040516102c79190611f29565b60405180910390f35b6102ea60048036038101906102e59190611eca565b61115a565b6040516102f79190611f5c565b60405180910390f35b61031a60048036038101906103159190612491565b611184565b6040516103279190611f29565b60405180910390f35b610338611199565b005b61034261122a565b60405161035597969594939291906125cd565b60405180910390f35b6103786004803603810190610373919061264f565b6112cf565b6040516103859190611f29565b60405180910390f35b6103966112fa565b6040516103a3919061268d565b60405180910390f35b6103c660048036038101906103c19190611eca565b61131f565b6040516103d39190611f29565b60405180910390f35b6103f660048036038101906103f19190611eca565b61134c565b6040516104039190611f29565b60405180910390f35b610426600480360381019061042191906126a6565b611379565b005b6003818051602081018201805184825260208301602085012081835280955050505050505f915090505481565b5f5f600483604051610467919061277c565b90815260200160405180910390205414159050919050565b84845f8251116104c4576040517f08c379a00000000000000000000000000000000000000000000000000000000081526004016104bb906127dc565b60405180910390fd5b5f815111610507576040517f08c379a00000000000000000000000000000000000000000000000000000000081526004016104fe9061286a565b60405180910390fd5b5f600383604051610518919061277c565b90815260200160405180910390205414610567576040517f08c379a000000000000000000000000000000000000000000000000000000000815260040161055e906128d2565b60405180910390fd5b5f600482604051610578919061277c565b908152602001604051809103902054146105c7576040517f08c379a00000000000000000000000000000000000000000000000000000000081526004016105be9061293a565b60405180910390fd5b5f85511161060a576040517f08c379a0000000000000000000000000000000000000000000000000000000008152600401610601906129c8565b60405180910390fd5b5f60058660405161061b919061277c565b9081526020016040518091039020541461066a576040517f08c379a000000000000000000000000000000000000000000000000000000000815260040161066190612a30565b60405180910390fd5b5f60075f81548092919061067d90612a7b565b9190505590506040518061010001604052808981526020018881526020018781526020013373ffffffffffffffffffffffffffffffffffffffff1681526020014281526020018681526020018581526020016001151581525060025f8381526020019081526020015f205f820151815f0190816106fa9190612cbf565b5060208201518160010190816107109190612cbf565b5060408201518160020190816107269190612cbf565b506060820151816003015f6101000a81548173ffffffffffffffffffffffffffffffffffffffff021916908373ffffffffffffffffffffffffffffffffffffffff1602179055506080820151816004015560a0820151816005015560c0820151816006015560e0820151816007015f6101000a81548160ff021916908315150217905550905050806003896040516107be919061277c565b908152602001604051809103902081905550806004886040516107e1919061277c565b90815260200160405180910390208190555080600587604051610804919061277c565b90815260200160405180910390208190555060065f3373ffffffffffffffffffffffffffffffffffffffff1673ffffffffffffffffffffffffffffffffffffffff1681526020019081526020015f2081908060018154018082558091505060019003905f5260205f20015f90919091909150553373ffffffffffffffffffffffffffffffffffffffff16817f8ad2f514ee4be3abf637e223b5165c379fe8c1a0c3ef5f1ae4e910b70e9cbd7e8a8a60016040516108c393929190612d8e565b60405180910390a3807fdcc35c73ce9c0b07fba473adb5e13dd0f5d1d9d6454bc9b757613b78ddd4b543876040516108fb9190612dd1565b60405180910390a25050505050505050565b5f600160075461091d9190612df1565b905090565b5f600482604051610933919061277c565b9081526020016040518091039020549050919050565b87875f82511161098e576040517f08c379a0000000000000000000000000000000000000000000000000000000008152600401610985906127dc565b60405180910390fd5b5f8151116109d1576040517f08c379a00000000000000000000000000000000000000000000000000000000081526004016109c89061286a565b60405180910390fd5b5f6003836040516109e2919061277c565b90815260200160405180910390205414610a31576040517f08c379a0000000000000000000000000000000000000000000000000000000008152600401610a28906128d2565b60405180910390fd5b5f600482604051610a42919061277c565b90815260200160405180910390205414610a91576040517f08c379a0000000000000000000000000000000000000000000000000000000008152600401610a889061293a565b60405180910390fd5b5f7f9fd055a4bf1e20e14560416480e453500470e38307b90ecf920ef61090a7bff18b805190602001208b805190602001208b8b60095f8d73ffffffffffffffffffffffffffffffffffffffff1673ffffffffffffffffffffffffffffffffffffffff1681526020019081526020015f205f815480929190610b1290612a7b565b91905055604051602001610b2b96959493929190612e24565b6040516020818303038152906040528051906020012090505f610b4d826114d6565b90505f610b5c828989896114ef565b90508873ffffffffffffffffffffffffffffffffffffffff168173ffffffffffffffffffffffffffffffffffffffff1614610bcc576040517f08c379a0000000000000000000000000000000000000000000000000000000008152600401610bc390612ecd565b60405180910390fd5b610bd98d8d8d8d8d61151d565b50505050505050505050505050565b610bf0611d25565b5f82118015610c00575060075482105b610c3f576040517f08c379a0000000000000000000000000000000000000000000000000000000008152600401610c3690612f35565b60405180910390fd5b60025f8381526020019081526020015f20604051806101000160405290815f82018054610c6b90612aef565b80601f0160208091040260200160405190810160405280929190818152602001828054610c9790612aef565b8015610ce25780601f10610cb957610100808354040283529160200191610ce2565b820191905f5260205f20905b815481529060010190602001808311610cc557829003601f168201915b50505050508152602001600182018054610cfb90612aef565b80601f0160208091040260200160405190810160405280929190818152602001828054610d2790612aef565b8015610d725780601f10610d4957610100808354040283529160200191610d72565b820191905f5260205f20905b815481529060010190602001808311610d5557829003601f168201915b50505050508152602001600282018054610d8b90612aef565b80601f0160208091040260200160405190810160405280929190818152602001828054610db790612aef565b8015610e025780601f10610dd957610100808354040283529160200191610e02565b820191905f5260205f20905b815481529060010190602001808311610de557829003601f168201915b50505050508152602001600382015f9054906101000a900473ffffffffffffffffffffffffffffffffffffffff1673ffffffffffffffffffffffffffffffffffffffff1673ffffffffffffffffffffffffffffffffffffffff168152602001600482015481526020016005820154815260200160068201548152602001600782015f9054906101000a900460ff1615151515815250509050919050565b6002602052805f5260405f205f91509050805f018054610ebe90612aef565b80601f0160208091040260200160405190810160405280929190818152602001828054610eea90612aef565b8015610f355780601f10610f0c57610100808354040283529160200191610f35565b820191905f5260205f20905b815481529060010190602001808311610f1857829003601f168201915b505050505090806001018054610f4a90612aef565b80601f0160208091040260200160405190810160405280929190818152602001828054610f7690612aef565b8015610fc15780601f10610f9857610100808354040283529160200191610fc1565b820191905f5260205f20905b815481529060010190602001808311610fa457829003601f168201915b505050505090806002018054610fd690612aef565b80601f016020809104026020016040519081016040528092919081815260200182805461100290612aef565b801561104d5780601f106110245761010080835404028352916020019161104d565b820191905f5260205f20905b81548152906001019060200180831161103057829003601f168201915b505050505090806003015f9054906101000a900473ffffffffffffffffffffffffffffffffffffffff1690806004015490806005015490806006015490806007015f9054906101000a900460ff16905088565b606060065f8373ffffffffffffffffffffffffffffffffffffffff1673ffffffffffffffffffffffffffffffffffffffff1681526020019081526020015f2080548060200260200160405190810160405280929190818152602001828054801561112757602002820191905f5260205f20905b815481526020019060010190808311611113575b50505050509050919050565b5f600382604051611144919061277c565b9081526020016040518091039020549050919050565b5f5f60038360405161116c919061277c565b90815260200160405180910390205414159050919050565b6009602052805f5260405f205f915090505481565b60085f9054906101000a900473ffffffffffffffffffffffffffffffffffffffff1673ffffffffffffffffffffffffffffffffffffffff163373ffffffffffffffffffffffffffffffffffffffff1614611228576040517f08c379a000000000000000000000000000000000000000000000000000000000815260040161121f90612fc3565b60405180910390fd5b565b5f6060805f5f5f606061123b61176f565b6112436117a9565b46305f5f1b5f67ffffffffffffffff81111561126257611261611da6565b5b6040519080825280602002602001820160405280156112905781602001602082028036833780820191505090505b507f0f00000000000000000000000000000000000000000000000000000000000000959493929190965096509650965096509650965090919293949596565b6006602052815f5260405f2081815481106112e8575f80fd5b905f5260205f20015f91509150505481565b60085f9054906101000a900473ffffffffffffffffffffffffffffffffffffffff1681565b6005818051602081018201805184825260208301602085012081835280955050505050505f915090505481565b6004818051602081018201805184825260208301602085012081835280955050505050505f915090505481565b83835f8251116113be576040517f08c379a00000000000000000000000000000000000000000000000000000000081526004016113b5906127dc565b60405180910390fd5b5f815111611401576040517f08c379a00000000000000000000000000000000000000000000000000000000081526004016113f89061286a565b60405180910390fd5b5f600383604051611412919061277c565b90815260200160405180910390205414611461576040517f08c379a0000000000000000000000000000000000000000000000000000000008152600401611458906128d2565b60405180910390fd5b5f600482604051611472919061277c565b908152602001604051809103902054146114c1576040517f08c379a00000000000000000000000000000000000000000000000000000000081526004016114b89061293a565b60405180910390fd5b6114ce868686863361151d565b505050505050565b5f6114e86114e26117e4565b8361189a565b9050919050565b5f5f5f5f6114ff888888886118da565b92509250925061150f82826119c1565b829350505050949350505050565b5f60075f81548092919061153090612a7b565b91905055905060405180610100016040528087815260200186815260200160405180602001604052805f81525081526020018373ffffffffffffffffffffffffffffffffffffffff1681526020014281526020018581526020018481526020015f151581525060025f8381526020019081526020015f205f820151815f0190816115ba9190612cbf565b5060208201518160010190816115d09190612cbf565b5060408201518160020190816115e69190612cbf565b506060820151816003015f6101000a81548173ffffffffffffffffffffffffffffffffffffffff021916908373ffffffffffffffffffffffffffffffffffffffff1602179055506080820151816004015560a0820151816005015560c0820151816006015560e0820151816007015f6101000a81548160ff0219169083151502179055509050508060038760405161167e919061277c565b908152602001604051809103902081905550806004866040516116a1919061277c565b90815260200160405180910390208190555060065f8373ffffffffffffffffffffffffffffffffffffffff1673ffffffffffffffffffffffffffffffffffffffff1681526020019081526020015f2081908060018154018082558091505060019003905f5260205f20015f90919091909150558173ffffffffffffffffffffffffffffffffffffffff16817f8ad2f514ee4be3abf637e223b5165c379fe8c1a0c3ef5f1ae4e910b70e9cbd7e88885f60405161175f93929190612d8e565b60405180910390a3505050505050565b60606117a45f7f0000000000000000000000000000000000000000000000000000000000000000611b2390919063ffffffff16565b905090565b60606117df60017f0000000000000000000000000000000000000000000000000000000000000000611b2390919063ffffffff16565b905090565b5f7f000000000000000000000000000000000000000000000000000000000000000073ffffffffffffffffffffffffffffffffffffffff163073ffffffffffffffffffffffffffffffffffffffff1614801561185f57507f000000000000000000000000000000000000000000000000000000000000000046145b1561188c577f00000000000000000000000000000000000000000000000000000000000000009050611897565b611894611bd0565b90505b90565b5f6040517f190100000000000000000000000000000000000000000000000000000000000081528360028201528260228201526042812091505092915050565b5f5f5f7f7fffffffffffffffffffffffffffffff5d576e7357a4501ddfe92f46681b20a0845f1c1115611916575f6003859250925092506119b7565b5f6001888888886040515f81526020016040526040516119399493929190612ff0565b6020604051602081039080840390855afa158015611959573d5f5f3e3d5ffd5b5050506020604051035190505f73ffffffffffffffffffffffffffffffffffffffff168173ffffffffffffffffffffffffffffffffffffffff16036119aa575f60015f5f1b935093509350506119b7565b805f5f5f1b935093509350505b9450945094915050565b5f60038111156119d4576119d3613033565b5b8260038111156119e7576119e6613033565b5b0315611b1f5760016003811115611a0157611a00613033565b5b826003811115611a1457611a13613033565b5b03611a4b576040517ff645eedf00000000000000000000000000000000000000000000000000000000815260040160405180910390fd5b60026003811115611a5f57611a5e613033565b5b826003811115611a7257611a71613033565b5b03611ab657805f1c6040517ffce698f7000000000000000000000000000000000000000000000000000000008152600401611aad9190611f29565b60405180910390fd5b600380811115611ac957611ac8613033565b5b826003811115611adc57611adb613033565b5b03611b1e57806040517fd78bce0c000000000000000000000000000000000000000000000000000000008152600401611b159190613060565b60405180910390fd5b5b5050565b606060ff5f1b8314611b3f57611b3883611c65565b9050611bca565b818054611b4b90612aef565b80601f0160208091040260200160405190810160405280929190818152602001828054611b7790612aef565b8015611bc25780601f10611b9957610100808354040283529160200191611bc2565b820191905f5260205f20905b815481529060010190602001808311611ba557829003601f168201915b505050505090505b92915050565b5f7f8b73c3c69bb8fe3d512ecc4cf759cc79239f7b179b0ffacaa9a75d522b39400f7f00000000000000000000000000000000000000000000000000000000000000007f00000000000000000000000000000000000000000000000000000000000000004630604051602001611c4a959493929190613079565b60405160208183030381529060405280519060200120905090565b60605f611c7183611cd7565b90505f602067ffffffffffffffff811115611c8f57611c8e611da6565b5b6040519080825280601f01601f191660200182016040528015611cc15781602001600182028036833780820191505090505b5090508181528360208201528092505050919050565b5f5f60ff835f1c169050601f811115611d1c576040517fb3512b0c00000000000000000000000000000000000000000000000000000000815260040160405180910390fd5b80915050919050565b6040518061010001604052806060815260200160608152602001606081526020015f73ffffffffffffffffffffffffffffffffffffffff1681526020015f81526020015f81526020015f81526020015f151581525090565b5f604051905090565b5f5ffd5b5f5ffd5b5f5ffd5b5f5ffd5b5f601f19601f8301169050919050565b7f4e487b71000000000000000000000000000000000000000000000000000000005f52604160045260245ffd5b611ddc82611d96565b810181811067ffffffffffffffff82111715611dfb57611dfa611da6565b5b80604052505050565b5f611e0d611d7d565b9050611e198282611dd3565b919050565b5f67ffffffffffffffff821115611e3857611e37611da6565b5b611e4182611d96565b9050602081019050919050565b828183375f83830152505050565b5f611e6e611e6984611e1e565b611e04565b905082815260208101848484011115611e8a57611e89611d92565b5b611e95848285611e4e565b509392505050565b5f82601f830112611eb157611eb0611d8e565b5b8135611ec1848260208601611e5c565b91505092915050565b5f60208284031215611edf57611ede611d86565b5b5f82013567ffffffffffffffff811115611efc57611efb611d8a565b5b611f0884828501611e9d565b91505092915050565b5f819050919050565b611f2381611f11565b82525050565b5f602082019050611f3c5f830184611f1a565b92915050565b5f8115159050919050565b611f5681611f42565b82525050565b5f602082019050611f6f5f830184611f4d565b92915050565b611f7e81611f11565b8114611f88575f5ffd5b50565b5f81359050611f9981611f75565b92915050565b5f5f5f5f5f60a08688031215611fb857611fb7611d86565b5b5f86013567ffffffffffffffff811115611fd557611fd4611d8a565b5b611fe188828901611e9d565b955050602086013567ffffffffffffffff81111561200257612001611d8a565b5b61200e88828901611e9d565b945050604086013567ffffffffffffffff81111561202f5761202e611d8a565b5b61203b88828901611e9d565b935050606061204c88828901611f8b565b925050608061205d88828901611f8b565b9150509295509295909350565b5f73ffffffffffffffffffffffffffffffffffffffff82169050919050565b5f6120938261206a565b9050919050565b6120a381612089565b81146120ad575f5ffd5b50565b5f813590506120be8161209a565b92915050565b5f60ff82169050919050565b6120d9816120c4565b81146120e3575f5ffd5b50565b5f813590506120f4816120d0565b92915050565b5f819050919050565b61210c816120fa565b8114612116575f5ffd5b50565b5f8135905061212781612103565b92915050565b5f5f5f5f5f5f5f5f610100898b03121561214a57612149611d86565b5b5f89013567ffffffffffffffff81111561216757612166611d8a565b5b6121738b828c01611e9d565b985050602089013567ffffffffffffffff81111561219457612193611d8a565b5b6121a08b828c01611e9d565b97505060406121b18b828c01611f8b565b96505060606121c28b828c01611f8b565b95505060806121d38b828c016120b0565b94505060a06121e48b828c016120e6565b93505060c06121f58b828c01612119565b92505060e06122068b828c01612119565b9150509295985092959890939650565b5f6020828403121561222b5761222a611d86565b5b5f61223884828501611f8b565b91505092915050565b5f81519050919050565b5f82825260208201905092915050565b8281835e5f83830152505050565b5f61227382612241565b61227d818561224b565b935061228d81856020860161225b565b61229681611d96565b840191505092915050565b6122aa81612089565b82525050565b6122b981611f11565b82525050565b6122c881611f42565b82525050565b5f61010083015f8301518482035f8601526122e98282612269565b915050602083015184820360208601526123038282612269565b9150506040830151848203604086015261231d8282612269565b915050606083015161233260608601826122a1565b50608083015161234560808601826122b0565b5060a083015161235860a08601826122b0565b5060c083015161236b60c08601826122b0565b5060e083015161237e60e08601826122bf565b508091505092915050565b5f6020820190508181035f8301526123a181846122ce565b905092915050565b5f82825260208201905092915050565b5f6123c382612241565b6123cd81856123a9565b93506123dd81856020860161225b565b6123e681611d96565b840191505092915050565b6123fa81612089565b82525050565b5f610100820190508181035f830152612419818b6123b9565b9050818103602083015261242d818a6123b9565b9050818103604083015261244181896123b9565b905061245060608301886123f1565b61245d6080830187611f1a565b61246a60a0830186611f1a565b61247760c0830185611f1a565b61248460e0830184611f4d565b9998505050505050505050565b5f602082840312156124a6576124a5611d86565b5b5f6124b3848285016120b0565b91505092915050565b5f81519050919050565b5f82825260208201905092915050565b5f819050602082019050919050565b5f6124f083836122b0565b60208301905092915050565b5f602082019050919050565b5f612512826124bc565b61251c81856124c6565b9350612527836124d6565b805f5b8381101561255757815161253e88826124e5565b9750612549836124fc565b92505060018101905061252a565b5085935050505092915050565b5f6020820190508181035f83015261257c8184612508565b905092915050565b5f7fff0000000000000000000000000000000000000000000000000000000000000082169050919050565b6125b881612584565b82525050565b6125c7816120fa565b82525050565b5f60e0820190506125e05f83018a6125af565b81810360208301526125f281896123b9565b9050818103604083015261260681886123b9565b90506126156060830187611f1a565b61262260808301866123f1565b61262f60a08301856125be565b81810360c08301526126418184612508565b905098975050505050505050565b5f5f6040838503121561266557612664611d86565b5b5f612672858286016120b0565b925050602061268385828601611f8b565b9150509250929050565b5f6020820190506126a05f8301846123f1565b92915050565b5f5f5f5f608085870312156126be576126bd611d86565b5b5f85013567ffffffffffffffff8111156126db576126da611d8a565b5b6126e787828801611e9d565b945050602085013567ffffffffffffffff81111561270857612707611d8a565b5b61271487828801611e9d565b935050604061272587828801611f8b565b925050606061273687828801611f8b565b91505092959194509250565b5f81905092915050565b5f61275682612241565b6127608185612742565b935061277081856020860161225b565b80840191505092915050565b5f612787828461274c565b915081905092915050565b7f436f6e74656e7420686173682063616e6e6f7420626520656d707479000000005f82015250565b5f6127c6601c836123a9565b91506127d182612792565b602082019050919050565b5f6020820190508181035f8301526127f3816127ba565b9050919050565b7f48756d616e207369676e617475726520686173682063616e6e6f7420626520655f8201527f6d70747900000000000000000000000000000000000000000000000000000000602082015250565b5f6128546024836123a9565b915061285f826127fa565b604082019050919050565b5f6020820190508181035f83015261288181612848565b9050919050565b7f436f6e74656e7420616c726561647920657869737473000000000000000000005f82015250565b5f6128bc6016836123a9565b91506128c782612888565b602082019050919050565b5f6020820190508181035f8301526128e9816128b0565b9050919050565b7f48756d616e207369676e617475726520616c72656164792075736564000000005f82015250565b5f612924601c836123a9565b915061292f826128f0565b602082019050919050565b5f6020820190508181035f83015261295181612918565b9050919050565b7f576f726c64204944206e756c6c69666965722063616e6e6f7420626520656d705f8201527f7479000000000000000000000000000000000000000000000000000000000000602082015250565b5f6129b26022836123a9565b91506129bd82612958565b604082019050919050565b5f6020820190508181035f8301526129df816129a6565b9050919050565b7f576f726c64204944206e756c6c696669657220616c72656164792075736564005f82015250565b5f612a1a601f836123a9565b9150612a25826129e6565b602082019050919050565b5f6020820190508181035f830152612a4781612a0e565b9050919050565b7f4e487b71000000000000000000000000000000000000000000000000000000005f52601160045260245ffd5b5f612a8582611f11565b91507fffffffffffffffffffffffffffffffffffffffffffffffffffffffffffffffff8203612ab757612ab6612a4e565b5b600182019050919050565b7f4e487b71000000000000000000000000000000000000000000000000000000005f52602260045260245ffd5b5f6002820490506001821680612b0657607f821691505b602082108103612b1957612b18612ac2565b5b50919050565b5f819050815f5260205f209050919050565b5f6020601f8301049050919050565b5f82821b905092915050565b5f60088302612b7b7fffffffffffffffffffffffffffffffffffffffffffffffffffffffffffffffff82612b40565b612b858683612b40565b95508019841693508086168417925050509392505050565b5f819050919050565b5f612bc0612bbb612bb684611f11565b612b9d565b611f11565b9050919050565b5f819050919050565b612bd983612ba6565b612bed612be582612bc7565b848454612b4c565b825550505050565b5f5f905090565b612c04612bf5565b612c0f818484612bd0565b505050565b5b81811015612c3257612c275f82612bfc565b600181019050612c15565b5050565b601f821115612c7757612c4881612b1f565b612c5184612b31565b81016020851015612c60578190505b612c74612c6c85612b31565b830182612c14565b50505b505050565b5f82821c905092915050565b5f612c975f1984600802612c7c565b1980831691505092915050565b5f612caf8383612c88565b9150826002028217905092915050565b612cc882612241565b67ffffffffffffffff811115612ce157612ce0611da6565b5b612ceb8254612aef565b612cf6828285612c36565b5f60209050601f831160018114612d27575f8415612d15578287015190505b612d1f8582612ca4565b865550612d86565b601f198416612d3586612b1f565b5f5b82811015612d5c57848901518255600182019150602085019450602081019050612d37565b86831015612d795784890151612d75601f891682612c88565b8355505b6001600288020188555050505b505050505050565b5f6060820190508181035f830152612da681866123b9565b90508181036020830152612dba81856123b9565b9050612dc96040830184611f4d565b949350505050565b5f6020820190508181035f830152612de981846123b9565b905092915050565b5f612dfb82611f11565b9150612e0683611f11565b9250828203905081811115612e1e57612e1d612a4e565b5b92915050565b5f60c082019050612e375f8301896125be565b612e4460208301886125be565b612e5160408301876125be565b612e5e6060830186611f1a565b612e6b6080830185611f1a565b612e7860a0830184611f1a565b979650505050505050565b7f496e76616c6964204549502d373132207369676e6174757265000000000000005f82015250565b5f612eb76019836123a9565b9150612ec282612e83565b602082019050919050565b5f6020820190508181035f830152612ee481612eab565b9050919050565b7f456e74727920646f6573206e6f742065786973740000000000000000000000005f82015250565b5f612f1f6014836123a9565b9150612f2a82612eeb565b602082019050919050565b5f6020820190508181035f830152612f4c81612f13565b9050919050565b7f4f6e6c79206f776e65722063616e2063616c6c20746869732066756e6374696f5f8201527f6e00000000000000000000000000000000000000000000000000000000000000602082015250565b5f612fad6021836123a9565b9150612fb882612f53565b604082019050919050565b5f6020820190508181035f830152612fda81612fa1565b9050919050565b612fea816120c4565b82525050565b5f6080820190506130035f8301876125be565b6130106020830186612fe1565b61301d60408301856125be565b61302a60608301846125be565b95945050505050565b7f4e487b71000000000000000000000000000000000000000000000000000000005f52602160045260245ffd5b5f6020820190506130735f8301846125be565b92915050565b5f60a08201905061308c5f8301886125be565b61309960208301876125be565b6130a660408301866125be565b6130b36060830185611f1a565b6130c060808301846123f1565b969550505050505056fea26469706673582212203e543f1fb413b07108b510daffd2d14576d0b244d12f36b4ea5b8dad97c5044d64736f6c634300081c0033",
  "linkReferences": {},
  "deployedLinkReferences": {}
}