{
  "_format": "hh-sol-artifact-1",
  "contractName": "HumanContentLedger",
  "sourceName": "contracts/HumanContentLedger.sol",
  "abi": [
    {
      "inputs": [],
      "stateMutability": "nonpayable",
      "type": "constructor"
    },
    {
      "anonymous": false,
      "inputs": [
        {
          "indexed": true,
          "internalType": "uint256",
          "name": "entryId",
          "type": "uint256"
        },
        {
          "indexed": true,
          "internalType": "address",
          "name": "author",
          "type": "address"
        },
        {
          "indexed": false,
          "internalType": "string",
          "name": "contentHash",
          "type": "string"
        },
        {
          "indexed": false,
          "internalType": "string",
          "name": "humanSignatureHash",
          "type": "string"
        },
        {
          "indexed": false,
          "internalType": "bool",
          "name": "isVerified",
          "type": "bool"
        }
      ],
      "name": "ContentStored",
      "type": "event"
    },
    {
      "anonymous": false,
      "inputs": [
        {
          "indexed": true,
          "internalType": "uint256",
          "name": "entryId",
          "type": "uint256"
        },
        {
          "indexed": false,
          "internalType": "string",
          "name": "worldIdNullifier",
          "type": "string"
        }
      ],
      "name": "WorldIdVerified",
      "type": "event"
    },
    {
      "inputs": [
        {
          "internalType": "address",
          "name": "",
          "type": "address"
        },
        {
          "internalType": "uint256",
          "name": "",
          "type": "uint256"
        }
      ],
      "name": "authorToEntries",
      "outputs": [
        {
          "internalType": "uint256",
          "name": "",
          "type": "uint256"
        }
      ],
      "stateMutability": "view",
      "type": "function"
    },
    {
      "inputs": [
        {
          "internalType": "uint256",
          "name": "",
          "type": "uint256"
        }
      ],
      "name": "contentEntries",
      "outputs": [
        {
          "internalType": "string",
          "name": "contentHash",
          "type": "string"
        },
        {
          "internalType": "string",
          "name": "humanSignatureHash",
          "type": "string"
        },
        {
          "internalType": "string",
          "name": "worldIdNullifier",
          "type": "string"
        },
        {
          "internalType": "address",
          "name": "author",
          "type": "address"
        },
        {
          "internalType": "uint256",
          "name": "timestamp",
          "type": "uint256"
        },
        {
          "internalType": "uint256",
          "name": "keystrokeCount",
          "type": "uint256"
        },
        {
          "internalType": "uint256",
          "name": "typingSpeed",
          "type": "uint256"
        },
        {
          "internalType": "bool",
          "name": "isVerified",
          "type": "bool"
        }
      ],
      "stateMutability": "view",
      "type": "function"
    },
    {
      "inputs": [
        {
          "internalType": "string",
          "name": "_contentHash",
          "type": "string"
        }
      ],
      "name": "contentExists",
      "outputs": [
        {
          "internalType": "bool",
          "name": "",
          "type": "bool"
        }
      ],
      "stateMutability": "view",
      "type": "function"
    },
    {
      "inputs": [
        {
          "internalType": "string",
          "name": "",
          "type": "string"
        }
      ],
      "name": "contentHashToId",
      "outputs": [
        {
          "internalType": "uint256",
          "name": "",
          "type": "uint256"
        }
      ],
      "stateMutability": "view",
      "type": "function"
    },
    {
      "inputs": [
        {
          "internalType": "uint256",
          "name": "_entryId",
          "type": "uint256"
        }
      ],
      "name": "getContentEntry",
      "outputs": [
        {
          "components": [
            {
              "internalType": "string",
              "name": "contentHash",
              "type": "string"
            },
            {
              "internalType": "string",
              "name": "humanSignatureHash",
              "type": "string"
            },
            {
              "internalType": "string",
              "name": "worldIdNullifier",
              "type": "string"
            },
            {
              "internalType": "address",
              "name": "author",
              "type": "address"
            },
            {
              "internalType": "uint256",
              "name": "timestamp",
              "type": "uint256"
            },
            {
              "internalType": "uint256",
              "name": "keystrokeCount",
              "type": "uint256"
            },
            {
              "internalType": "uint256",
              "name": "typingSpeed",
              "type": "uint256"
            },
            {
              "internalType": "bool",
              "name": "isVerified",
              "type": "bool"
            }
          ],
          "internalType": "struct HumanContentLedger.ContentEntry",
          "name": "",
          "type": "tuple"
        }
      ],
      "stateMutability": "view",
      "type": "function"
    },
    {
      "inputs": [
        {
          "internalType": "address",
          "name": "_author",
          "type": "address"
        }
      ],
      "name": "getEntriesByAuthor",
      "outputs": [
        {
          "internalType": "uint256[]",
          "name": "",
          "type": "uint256[]"
        }
      ],
      "stateMutability": "view",
      "type": "function"
    },
    {
      "inputs": [
        {
          "internalType": "string",
          "name": "_contentHash",
          "type": "string"
        }
      ],
      "name": "getEntryIdByContentHash",
      "outputs": [
        {
          "internalType": "uint256",
          "name": "",
          "type": "uint256"
        }
      ],
      "stateMutability": "view",
      "type": "function"
    },
    {
      "inputs": [
        {
          "internalType": "string",
          "name": "_humanSignatureHash",
          "type": "string"
        }
      ],
      "name": "getEntryIdBySignatureHash",
      "outputs": [
        {
          "internalType": "uint256",
          "name": "",
          "type": "uint256"
        }
      ],
      "stateMutability": "view",
      "type": "function"
    },
    {
      "inputs": [],
      "name": "getTotalEntries",
      "outputs": [
        {
          "internalType": "uint256",
          "name": "",
          "type": "uint256"
        }
      ],
      "stateMutability": "view",
      "type": "function"
    },
    {
      "inputs": [
        {
          "internalType": "string",
          "name": "",
          "type": "string"
        }
      ],
      "name": "nullifierToId",
      "outputs": [
        {
          "internalType": "uint256",
          "name": "",
          "type": "uint256"
        }
      ],
      "stateMutability": "view",
      "type": "function"
    },
    {
      "inputs": [],
      "name": "owner",
      "outputs": [
        {
          "internalType": "address",
          "name": "",
          "type": "address"
        }
      ],
      "stateMutability": "view",
      "type": "function"
    },
    {
      "inputs": [],
      "name": "pause",
      "outputs": [],
      "stateMutability": "nonpayable",
      "type": "function"
    },
    {
      "inputs": [
        {
          "internalType": "string",
          "name": "_humanSignatureHash",
          "type": "string"
        }
      ],
      "name": "signatureExists",
      "outputs": [
        {
          "internalType": "bool",
          "name": "",
          "type": "bool"
        }
      ],
      "stateMutability": "view",
      "type": "function"
    },
    {
      "inputs": [
        {
          "internalType": "string",
          "name": "",
          "type": "string"
        }
      ],
      "name": "signatureHashToId",
      "outputs": [
        {
          "internalType": "uint256",
          "name": "",
          "type": "uint256"
        }
      ],
      "stateMutability": "view",
      "type": "function"
    },
    {
      "inputs": [
        {
          "internalType": "string",
          "name": "_contentHash",
          "type": "string"
        },
        {
          "internalType": "string",
          "name": "_humanSignatureHash",
          "type": "string"
        },
        {
          "internalType": "uint256",
          "name": "_keystrokeCount",
          "type": "uint256"
        },
        {
          "internalType": "uint256",
          "name": "_typingSpeed",
          "type": "uint256"
        }
      ],
      "name": "storeContent",
      "outputs": [],
      "stateMutability": "nonpayable",
      "type": "function"
    },
    {
      "inputs": [
        {
          "internalType": "string",
          "name": "_contentHash",
          "type": "string"
        },
        {
          "internalType": "string",
          "name": "_humanSignatureHash",
          "type": "string"
        },
        {
          "internalType": "string",
          "name": "_worldIdNullifier",
          "type": "string"
        },
        {
          "internalType": "uint256",
          "name": "_keystrokeCount",
          "type": "uint256"
        },
        {
          "internalType": "uint256",
          "name": "_typingSpeed",
          "type": "uint256"
        }
      ],
      "name": "storeVerifiedContent",
      "outputs": [],
      "stateMutability": "nonpayable",
      "type": "function"
    }
  ],
  "bytecode": "0x60806040526001600555348015601457600080fd5b5033600660006101000a81548173ffffffffffffffffffffffffffffffffffffffff021916908373ffffffffffffffffffffffffffffffffffffffff160217905550612428806100656000396000f3fe608060405234801561001057600080fd5b50600436106101005760003560e01c80636a36b43a116100975780638da5cb5b116100665780638da5cb5b14610300578063aa6febfb1461031e578063c214f48b1461034e578063f655e51b1461037e57610100565b80636a36b43a146102665780637a211063146102965780638456cb59146102c6578063869d2a63146102d057610100565b8063131a83a6116100d3578063131a83a61461019f57806354ac2b81146101cf57806357dfe3fc146101ff57806358bc35e61461023657610100565b80630b751aa3146101055780630f5db9fe146101355780631174622c1461016557806312d491c914610181575b600080fd5b61011f600480360381019061011a9190611534565b61039a565b60405161012c9190611596565b60405180910390f35b61014f600480360381019061014a9190611534565b6103c8565b60405161015c91906115cc565b60405180910390f35b61017f600480360381019061017a9190611613565b6103f3565b005b610189610893565b6040516101969190611596565b60405180910390f35b6101b960048036038101906101b49190611534565b6108a9565b6040516101c69190611596565b60405180910390f35b6101e960048036038101906101e491906116e2565b6108d1565b6040516101f691906118ab565b60405180910390f35b610219600480360381019061021491906116e2565b610b93565b60405161022d989796959493929190611926565b60405180910390f35b610250600480360381019061024b91906119e5565b610da0565b60405161025d9190611ac1565b60405180910390f35b610280600480360381019061027b9190611534565b610e37565b60405161028d9190611596565b60405180910390f35b6102b060048036038101906102ab9190611534565b610e5f565b6040516102bd91906115cc565b60405180910390f35b6102ce610e8a565b005b6102ea60048036038101906102e59190611ae3565b610f1c565b6040516102f79190611596565b60405180910390f35b610308610f4d565b6040516103159190611b23565b60405180910390f35b61033860048036038101906103339190611534565b610f73565b6040516103459190611596565b60405180910390f35b61036860048036038101906103639190611534565b610fa1565b6040516103759190611596565b60405180910390f35b61039860048036038101906103939190611b3e565b610fcf565b005b6001818051602081018201805184825260208301602085012081835280955050505050506000915090505481565b6000806002836040516103db9190611c19565b90815260200160405180910390205414159050919050565b84846000825111610439576040517f08c379a000000000000000000000000000000000000000000000000000000000815260040161043090611c7c565b60405180910390fd5b600081511161047d576040517f08c379a000000000000000000000000000000000000000000000000000000000815260040161047490611d0e565b60405180910390fd5b600060018360405161048f9190611c19565b908152602001604051809103902054146104de576040517f08c379a00000000000000000000000000000000000000000000000000000000081526004016104d590611d7a565b60405180910390fd5b60006002826040516104f09190611c19565b9081526020016040518091039020541461053f576040517f08c379a000000000000000000000000000000000000000000000000000000000815260040161053690611de6565b60405180910390fd5b6000855111610583576040517f08c379a000000000000000000000000000000000000000000000000000000000815260040161057a90611e78565b60405180910390fd5b60006003866040516105959190611c19565b908152602001604051809103902054146105e4576040517f08c379a00000000000000000000000000000000000000000000000000000000081526004016105db90611ee4565b60405180910390fd5b6000600560008154809291906105f990611f33565b9190505590506040518061010001604052808981526020018881526020018781526020013373ffffffffffffffffffffffffffffffffffffffff1681526020014281526020018681526020018581526020016001151581525060008083815260200190815260200160002060008201518160000190816106799190612187565b50602082015181600101908161068f9190612187565b5060408201518160020190816106a59190612187565b5060608201518160030160006101000a81548173ffffffffffffffffffffffffffffffffffffffff021916908373ffffffffffffffffffffffffffffffffffffffff1602179055506080820151816004015560a0820151816005015560c0820151816006015560e08201518160070160006101000a81548160ff0219169083151502179055509050508060018960405161073f9190611c19565b908152602001604051809103902081905550806002886040516107629190611c19565b908152602001604051809103902081905550806003876040516107859190611c19565b908152602001604051809103902081905550600460003373ffffffffffffffffffffffffffffffffffffffff1673ffffffffffffffffffffffffffffffffffffffff1681526020019081526020016000208190806001815401808255809150506001900390600052602060002001600090919091909150553373ffffffffffffffffffffffffffffffffffffffff16817f8ad2f514ee4be3abf637e223b5165c379fe8c1a0c3ef5f1ae4e910b70e9cbd7e8a8a600160405161084993929190612259565b60405180910390a3807fdcc35c73ce9c0b07fba473adb5e13dd0f5d1d9d6454bc9b757613b78ddd4b54387604051610881919061229e565b60405180910390a25050505050505050565b600060016005546108a491906122c0565b905090565b60006002826040516108bb9190611c19565b9081526020016040518091039020549050919050565b6108d961137d565b6000821180156108ea575060055482105b610929576040517f08c379a000000000000000000000000000000000000000000000000000000000815260040161092090612340565b60405180910390fd5b6000808381526020019081526020016000206040518061010001604052908160008201805461095790611faa565b80601f016020809104026020016040519081016040528092919081815260200182805461098390611faa565b80156109d05780601f106109a5576101008083540402835291602001916109d0565b820191906000526020600020905b8154815290600101906020018083116109b357829003601f168201915b505050505081526020016001820180546109e990611faa565b80601f0160208091040260200160405190810160405280929190818152602001828054610a1590611faa565b8015610a625780601f10610a3757610100808354040283529160200191610a62565b820191906000526020600020905b815481529060010190602001808311610a4557829003601f168201915b50505050508152602001600282018054610a7b90611faa565b80601f0160208091040260200160405190810160405280929190818152602001828054610aa790611faa565b8015610af45780601f10610ac957610100808354040283529160200191610af4565b820191906000526020600020905b815481529060010190602001808311610ad757829003601f168201915b505050505081526020016003820160009054906101000a900473ffffffffffffffffffffffffffffffffffffffff1673ffffffffffffffffffffffffffffffffffffffff1673ffffffffffffffffffffffffffffffffffffffff1681526020016004820154815260200160058201548152602001600682015481526020016007820160009054906101000a900460ff1615151515815250509050919050565b6000602052806000526040600020600091509050806000018054610bb690611faa565b80601f0160208091040260200160405190810160405280929190818152602001828054610be290611faa565b8015610c2f5780601f10610c0457610100808354040283529160200191610c2f565b820191906000526020600020905b815481529060010190602001808311610c1257829003601f168201915b505050505090806001018054610c4490611faa565b80601f0160208091040260200160405190810160405280929190818152602001828054610c7090611faa565b8015610cbd5780601f10610c9257610100808354040283529160200191610cbd565b820191906000526020600020905b815481529060010190602001808311610ca057829003601f168201915b505050505090806002018054610cd290611faa565b80601f0160208091040260200160405190810160405280929190818152602001828054610cfe90611faa565b8015610d4b5780601f10610d2057610100808354040283529160200191610d4b565b820191906000526020600020905b815481529060010190602001808311610d2e57829003601f168201915b5050505050908060030160009054906101000a900473ffffffffffffffffffffffffffffffffffffffff16908060040154908060050154908060060154908060070160009054906101000a900460ff16905088565b6060600460008373ffffffffffffffffffffffffffffffffffffffff1673ffffffffffffffffffffffffffffffffffffffff168152602001908152602001600020805480602002602001604051908101604052809291908181526020018280548015610e2b57602002820191906000526020600020905b815481526020019060010190808311610e17575b50505050509050919050565b6000600182604051610e499190611c19565b9081526020016040518091039020549050919050565b600080600183604051610e729190611c19565b90815260200160405180910390205414159050919050565b600660009054906101000a900473ffffffffffffffffffffffffffffffffffffffff1673ffffffffffffffffffffffffffffffffffffffff163373ffffffffffffffffffffffffffffffffffffffff1614610f1a576040517f08c379a0000000000000000000000000000000000000000000000000000000008152600401610f11906123d2565b60405180910390fd5b565b60046020528160005260406000208181548110610f3857600080fd5b90600052602060002001600091509150505481565b600660009054906101000a900473ffffffffffffffffffffffffffffffffffffffff1681565b6003818051602081018201805184825260208301602085012081835280955050505050506000915090505481565b6002818051602081018201805184825260208301602085012081835280955050505050506000915090505481565b83836000825111611015576040517f08c379a000000000000000000000000000000000000000000000000000000000815260040161100c90611c7c565b60405180910390fd5b6000815111611059576040517f08c379a000000000000000000000000000000000000000000000000000000000815260040161105090611d0e565b60405180910390fd5b600060018360405161106b9190611c19565b908152602001604051809103902054146110ba576040517f08c379a00000000000000000000000000000000000000000000000000000000081526004016110b190611d7a565b60405180910390fd5b60006002826040516110cc9190611c19565b9081526020016040518091039020541461111b576040517f08c379a000000000000000000000000000000000000000000000000000000000815260040161111290611de6565b60405180910390fd5b60006005600081548092919061113090611f33565b9190505590506040518061010001604052808881526020018781526020016040518060200160405280600081525081526020013373ffffffffffffffffffffffffffffffffffffffff1681526020014281526020018681526020018581526020016000151581525060008083815260200190815260200160002060008201518160000190816111bf9190612187565b5060208201518160010190816111d59190612187565b5060408201518160020190816111eb9190612187565b5060608201518160030160006101000a81548173ffffffffffffffffffffffffffffffffffffffff021916908373ffffffffffffffffffffffffffffffffffffffff1602179055506080820151816004015560a0820151816005015560c0820151816006015560e08201518160070160006101000a81548160ff021916908315150217905550905050806001886040516112859190611c19565b908152602001604051809103902081905550806002876040516112a89190611c19565b908152602001604051809103902081905550600460003373ffffffffffffffffffffffffffffffffffffffff1673ffffffffffffffffffffffffffffffffffffffff1681526020019081526020016000208190806001815401808255809150506001900390600052602060002001600090919091909150553373ffffffffffffffffffffffffffffffffffffffff16817f8ad2f514ee4be3abf637e223b5165c379fe8c1a0c3ef5f1ae4e910b70e9cbd7e8989600060405161136c93929190612259565b60405180910390a350505050505050565b604051806101000160405280606081526020016060815260200160608152602001600073ffffffffffffffffffffffffffffffffffffffff1681526020016000815260200160008152602001600081526020016000151581525090565b6000604051905090565b600080fd5b600080fd5b600080fd5b600080fd5b6000601f19601f8301169050919050565b7f4e487b7100000000000000000000000000000000000000000000000000000000600052604160045260246000fd5b611441826113f8565b810181811067ffffffffffffffff821117156114605761145f611409565b5b80604052505050565b60006114736113da565b905061147f8282611438565b919050565b600067ffffffffffffffff82111561149f5761149e611409565b5b6114a8826113f8565b9050602081019050919050565b82818337600083830152505050565b60006114d76114d284611484565b611469565b9050828152602081018484840111156114f3576114f26113f3565b5b6114fe8482856114b5565b509392505050565b600082601f83011261151b5761151a6113ee565b5b813561152b8482602086016114c4565b91505092915050565b60006020828403121561154a576115496113e4565b5b600082013567ffffffffffffffff811115611568576115676113e9565b5b61157484828501611506565b91505092915050565b6000819050919050565b6115908161157d565b82525050565b60006020820190506115ab6000830184611587565b92915050565b60008115159050919050565b6115c6816115b1565b82525050565b60006020820190506115e160008301846115bd565b92915050565b6115f08161157d565b81146115fb57600080fd5b50565b60008135905061160d816115e7565b92915050565b600080600080600060a0868803121561162f5761162e6113e4565b5b600086013567ffffffffffffffff81111561164d5761164c6113e9565b5b61165988828901611506565b955050602086013567ffffffffffffffff81111561167a576116796113e9565b5b61168688828901611506565b945050604086013567ffffffffffffffff8111156116a7576116a66113e9565b5b6116b388828901611506565b93505060606116c4888289016115fe565b92505060806116d5888289016115fe565b9150509295509295909350565b6000602082840312156116f8576116f76113e4565b5b6000611706848285016115fe565b91505092915050565b600081519050919050565b600082825260208201905092915050565b60005b8381101561174957808201518184015260208101905061172e565b60008484015250505050565b60006117608261170f565b61176a818561171a565b935061177a81856020860161172b565b611783816113f8565b840191505092915050565b600073ffffffffffffffffffffffffffffffffffffffff82169050919050565b60006117b98261178e565b9050919050565b6117c9816117ae565b82525050565b6117d88161157d565b82525050565b6117e7816115b1565b82525050565b600061010083016000830151848203600086015261180b8282611755565b915050602083015184820360208601526118258282611755565b9150506040830151848203604086015261183f8282611755565b915050606083015161185460608601826117c0565b50608083015161186760808601826117cf565b5060a083015161187a60a08601826117cf565b5060c083015161188d60c08601826117cf565b5060e08301516118a060e08601826117de565b508091505092915050565b600060208201905081810360008301526118c581846117ed565b905092915050565b600082825260208201905092915050565b60006118e98261170f565b6118f381856118cd565b935061190381856020860161172b565b61190c816113f8565b840191505092915050565b611920816117ae565b82525050565b6000610100820190508181036000830152611941818b6118de565b90508181036020830152611955818a6118de565b9050818103604083015261196981896118de565b90506119786060830188611917565b6119856080830187611587565b61199260a0830186611587565b61199f60c0830185611587565b6119ac60e08301846115bd565b9998505050505050505050565b6119c2816117ae565b81146119cd57600080fd5b50565b6000813590506119df816119b9565b92915050565b6000602082840312156119fb576119fa6113e4565b5b6000611a09848285016119d0565b91505092915050565b600081519050919050565b600082825260208201905092915050565b6000819050602082019050919050565b6000611a4a83836117cf565b60208301905092915050565b6000602082019050919050565b6000611a6e82611a12565b611a788185611a1d565b9350611a8383611a2e565b8060005b83811015611ab4578151611a9b8882611a3e565b9750611aa683611a56565b925050600181019050611a87565b5085935050505092915050565b60006020820190508181036000830152611adb8184611a63565b905092915050565b60008060408385031215611afa57611af96113e4565b5b6000611b08858286016119d0565b9250506020611b19858286016115fe565b9150509250929050565b6000602082019050611b386000830184611917565b92915050565b60008060008060808587031215611b5857611b576113e4565b5b600085013567ffffffffffffffff811115611b7657611b756113e9565b5b611b8287828801611506565b945050602085013567ffffffffffffffff811115611ba357611ba26113e9565b5b611baf87828801611506565b9350506040611bc0878288016115fe565b9250506060611bd1878288016115fe565b91505092959194509250565b600081905092915050565b6000611bf38261170f565b611bfd8185611bdd565b9350611c0d81856020860161172b565b80840191505092915050565b6000611c258284611be8565b915081905092915050565b7f436f6e74656e7420686173682063616e6e6f7420626520656d70747900000000600082015250565b6000611c66601c836118cd565b9150611c7182611c30565b602082019050919050565b60006020820190508181036000830152611c9581611c59565b9050919050565b7f48756d616e207369676e617475726520686173682063616e6e6f74206265206560008201527f6d70747900000000000000000000000000000000000000000000000000000000602082015250565b6000611cf86024836118cd565b9150611d0382611c9c565b604082019050919050565b60006020820190508181036000830152611d2781611ceb565b9050919050565b7f436f6e74656e7420616c72656164792065786973747300000000000000000000600082015250565b6000611d646016836118cd565b9150611d6f82611d2e565b602082019050919050565b60006020820190508181036000830152611d9381611d57565b9050919050565b7f48756d616e207369676e617475726520616c7265616479207573656400000000600082015250565b6000611dd0601c836118cd565b9150611ddb82611d9a565b602082019050919050565b60006020820190508181036000830152611dff81611dc3565b9050919050565b7f576f726c64204944206e756c6c69666965722063616e6e6f7420626520656d7060008201527f7479000000000000000000000000000000000000000000000000000000000000602082015250565b6000611e626022836118cd565b9150611e6d82611e06565b604082019050919050565b60006020820190508181036000830152611e9181611e55565b9050919050565b7f576f726c64204944206e756c6c696669657220616c7265616479207573656400600082015250565b6000611ece601f836118cd565b9150611ed982611e98565b602082019050919050565b60006020820190508181036000830152611efd81611ec1565b9050919050565b7f4e487b7100000000000000000000000000000000000000000000000000000000600052601160045260246000fd5b6000611f3e8261157d565b91507fffffffffffffffffffffffffffffffffffffffffffffffffffffffffffffffff8203611f7057611f6f611f04565b5b600182019050919050565b7f4e487b7100000000000000000000000000000000000000000000000000000000600052602260045260246000fd5b60006002820490506001821680611fc257607f821691505b602082108103611fd557611fd4611f7b565b5b50919050565b60008190508160005260206000209050919050565b60006020601f8301049050919050565b600082821b905092915050565b60006008830261203d7fffffffffffffffffffffffffffffffffffffffffffffffffffffffffffffffff82612000565b6120478683612000565b95508019841693508086168417925050509392505050565b6000819050919050565b600061208461207f61207a8461157d565b61205f565b61157d565b9050919050565b6000819050919050565b61209e83612069565b6120b26120aa8261208b565b84845461200d565b825550505050565b600090565b6120c76120ba565b6120d2818484612095565b505050565b5b818110156120f6576120eb6000826120bf565b6001810190506120d8565b5050565b601f82111561213b5761210c81611fdb565b61211584611ff0565b81016020851015612124578190505b61213861213085611ff0565b8301826120d7565b50505b505050565b600082821c905092915050565b600061215e60001984600802612140565b1980831691505092915050565b6000612177838361214d565b9150826002028217905092915050565b6121908261170f565b67ffffffffffffffff8111156121a9576121a8611409565b5b6121b38254611faa565b6121be8282856120fa565b600060209050601f8311600181146121f157600084156121df578287015190505b6121e9858261216b565b865550612251565b601f1984166121ff86611fdb565b60005b8281101561222757848901518255600182019150602085019450602081019050612202565b868310156122445784890151612240601f89168261214d565b8355505b6001600288020188555050505b505050505050565b6000606082019050818103600083015261227381866118de565b9050818103602083015261228781856118de565b905061229660408301846115bd565b949350505050565b600060208201905081810360008301526122b881846118de565b905092915050565b60006122cb8261157d565b91506122d68361157d565b92508282039050818111156122ee576122ed611f04565b5b92915050565b7f456e74727920646f6573206e6f74206578697374000000000000000000000000600082015250565b600061232a6014836118cd565b9150612335826122f4565b602082019050919050565b600060208201905081810360008301526123598161231d565b9050919050565b7f4f6e6c79206f776e65722063616e2063616c6c20746869732066756e6374696f60008201527f6e00000000000000000000000000000000000000000000000000000000000000602082015250565b60006123bc6021836118cd565b91506123c782612360565b604082019050919050565b600060208201905081810360008301526123eb816123af565b905091905056fea2646970667358221220391d9129c5cfba759eab46ff7d70783385e691e76e40dea786394a7f270586f864736f6c634300081c0033",
  "linkReferences": {},
  "deployedLinkReferences": {}
}